:030000000208965D
:0C089600787FE4F6D8FD75810A0208DDC9
:03093800010A00B1
:040922007F507EC3C1
:10092600E4FDFCC3ED9FEC9E50070DBD00010C805D
:01093600F2CE
:01093700229D
:100800007590FFD2802080FB7FB07E0412092620E5
:100810008002050AE50A75F0058485F00AE50AB448
:100820000103E4F590E50AB402037590FFE50AB40C
:10083000030FE4F5901209227590FF12092630800B
:10084000F1E50AB4041C7590FEE4FB120922AF9096
:100850007801EF08800123D8FDF5900BBB08EC75FB
:0608600090FFE50A702381
:100866007590FEF508F509120922E59025E0F59048
:100876000509E50970020508C39407E50864809434
:030886008040E4CB
:0D0889003080FD7FB07E04120926020803B6
:1008A200020800E493A3F8E493A34003F68001F264
:1008B20008DFF48029E493A3F85407240CC8C33357
:1008C200C4540F4420C8834004F456800146F6DF26
:1008D200E4800B0102040810204080900938E47E75
:1008E200019360BCA3FF543F30E509541FFEE4931B
:1008F200A360010ECF54C025E060A840B8E493A3E2
:10090200FAE493A3F8E493A3C8C582C8CAC583CA0C
:10091200F0A3C8C582C8CAC583CADFE9DEE780BEC4
:01093B0000BB
:00000001FF
